:100000000C9452000C946F000C946F000C946F00D1
:100010000C946F000C946F000C946F000C946F00A4
:100020000C946F000C94EB000C946F000C946F0018
:100030000C946F000C946F000C946F000C946F0084
:100040000C94A1000C946F000C946F000C946F0042
:100050000C946F000C946F000C946F000C946F0064
:100060000C946F000C946F00000000002500280025
:100070002B0000000000240027002A0004040404D0
:100080000404040402020202020203030303030342
:10009000010204081020408001020408102001021F
:1000A0000408102011241FBECFEFD8E0DEBFCDBF63
:1000B00011E0A0E0B1E0E2EFF4E002C005900D92A3
:1000C000AC3EB107D9F722E0ACEEB1E001C01D9221
:1000D000A730B207E1F70E949C010C9477020C94C0
:1000E000000090E0FC01E057FF4F249184589F4F9F
:1000F000FC018491882399F090E0880F991FFC01FE
:10010000EE58FF4FA591B491FC01E859FF4F85913E
:1001100094918FB7F894EC91E22BEC938FBF0895F4
:10012000806480937C0080917A00806480937A0060
:1001300080917A0086FDFCCF8091780090917900C3
:1001400008951F920F920FB60F9211242F933F9391
:100150008F939F93AF93BF9380910302909104027A
:10016000A0910502B09106023091020223E0230F14
:100170002D3758F50196A11DB11D209302028093E1
:10018000030290930402A0930502B09306028091AB
:10019000FE019091FF01A0910002B0910102019631
:1001A000A11DB11D8093FE019093FF01A093000259
:1001B000B0930102BF91AF919F918F913F912F9189
:1001C0000F900FBE0F901F90189526E8230F0296F0
:1001D000A11DB11DD2CF1F920F920FB60F92112405
:1001E0002F933F934F935F936F937F938F939F933F
:1001F000AF93BF93CF93DF93EF93FF932091FC01D5
:100200003091FD018091F4019091F501820F931FCF
:100210009093F5018093F40182179307B0F4109244
:10022000F3011092F2018FEF9FE79093F101809319
:10023000F0011092EF011092EE019093ED01809386
:10024000EC0185B190E2892785B92091F2013091C6
:10025000F3018091FA019091FB01280F391F30932F
:10026000F3012093F2018091EE019091EF01409112
:10027000F7015091F801840F951F9093EF0180933F
:10028000EE01B901660F672F661F770B7195562F28
:1002900037FD50952091F0013091F101E32FFF27B8
:1002A0005E9FE0015F9FD00D1124BC01660F672F98
:1002B000661F770B7195A62F97FDA0958091EC0195
:1002C0009091ED01692F7727A69FA001A79F500D60
:1002D00011244C0F5D1F4091F9014E9FD0014F9F9B
:1002E000B00D11242A1B3B0B3093F1012093F00138
:1002F0004091F601469F9001479F300D1124821BCB
:10030000930B9093ED018093EC01852F869580935C
:10031000B400FF91EF91DF91CF91BF91AF919F9189
:100320008F917F916F915F914F913F912F910F909E
:100330000FBE0F901F901895789484B5826084BD8D
:1003400084B5816084BD85B5826085BD85B58160D9
:1003500085BD80916E00816080936E001092810057
:100360008091810082608093810080918100816012
:1003700080938100809180008160809380008091D3
:10038000B10084608093B1008091B000816080935F
:10039000B00080917A00846080937A0080917A0026
:1003A000826080937A0080917A00816080937A00E5
:1003B00080917A00806880937A001092C10083E077
:1003C0000E94710081E28093B00081E08093B100CF
:1003D000809370008DE00E947100CFEFD3E003E1C5
:1003E00010E030E0E32E30E0F32E84E00E94900035
:1003F0009E01281B390BC901B8010E946302FB0151
:10040000FF27EE0FFF1FE050FF4F808191819093F7
:10041000FD018093FC0180E00E949000FC01EF73DD
:10042000FF27EE0FFF1FE459FE4F9C01B6E0369503
:100430002795BA95E1F78081918102C096958795BD
:100440002A95E2F7969587959093FB018093FA01A0
:1004500082E00E94900097FD079633E0959587957E
:100460003A95E1F78093F90183E00E949000FC0146
:10047000EF73FF27EE0FFF1FE459FE4F9C0156E07C
:10048000369527955A95E1F78081918102C096951E
:1004900087952A95E2F7969587959093F801809332
:1004A000F70181E00E94900097FD0396959587954E
:1004B000959587958093F601E114F10409F495CFA1
:1004C0000E94000092CFAA1BBB1B51E107C0AA1FCC
:1004D000BB1FA617B70710F0A61BB70B881F991FE5
:1004E0005A95A9F780959095BC01CD010895F8948F
:0204F000FFCF3C
:1004F2000000130016001A001D00200026002B0029
:1005020033003A0041004D0056006700730081003D
:100512009A00AD00CE00E700030134015A019B01AD
:10052200CD0106026802B30236039B030C04D00419
:1005320067056C06350717089F09CD0AD80C6B0EA4
:100542002F103F139A15B119D61C5E207E26342B2C
:100552006133AC39BC40FC4C6956C2663EFD84FA3C
:10056200D1F725F581F2E5EF4FEDC1EA39E8B9E5BA
:1005720040E3CDE061DEFCDB9DD945D7F3D4A8D2C0
:1005820063D025CEECCBBAC98DC767C547C32CC192
:1005920018BF09BDFFBAFCB8FEB605B512B324B147
:1005A2003BAF58AD7AABA1A9CEA7FFA535A470A2E7
:1005B200B0A0F59E3F9D8D9BE09938989496F59456
:1005C2005A93C4913290A48E1B8D968B158A98886B
:0C05D2001F87AB853A84CE8265810080D3
:107E0000112484B714BE81FFF0D085E080938100F7
:107E100082E08093C00088E18093C10086E0809377
:107E2000C20080E18093C4008EE0C9D0259A86E02C
:107E300020E33CEF91E0309385002093840096BBD3
:107E4000B09BFECF1D9AA8958150A9F7CC24DD24C4
:107E500088248394B5E0AB2EA1E19A2EF3E0BF2EE7
:107E6000A2D0813461F49FD0082FAFD0023811F036
:107E7000013811F484E001C083E08DD089C08234E0
:107E800011F484E103C0853419F485E0A6D080C0E4
:107E9000853579F488D0E82EFF2485D0082F10E0AE
:107EA000102F00270E291F29000F111F8ED06801E7
:107EB0006FC0863521F484E090D080E0DECF843638
:107EC00009F040C070D06FD0082F6DD080E0C81688
:107ED00080E7D80618F4F601B7BEE895C0E0D1E017
:107EE00062D089930C17E1F7F0E0CF16F0E7DF06D8
:107EF00018F0F601B7BEE89568D007B600FCFDCFD4
:107F0000A601A0E0B1E02C9130E011968C91119780
:107F100090E0982F8827822B932B1296FA010C0160
:107F200087BEE89511244E5F5F4FF1E0A038BF0790
:107F300051F7F601A7BEE89507B600FCFDCF97BE46
:107F4000E89526C08437B1F42ED02DD0F82E2BD052
:107F50003CD0F601EF2C8F010F5F1F4F84911BD097
:107F6000EA94F801C1F70894C11CD11CFA94CF0C13
:107F7000D11C0EC0853739F428D08EE10CD085E9AC
:107F80000AD08FE07ACF813511F488E018D01DD067
:107F900080E101D065CF982F8091C00085FFFCCF94
:107FA0009093C60008958091C00087FFFCCF809118
:107FB000C00084FD01C0A8958091C6000895E0E648
:107FC000F0E098E1908380830895EDDF803219F02E
:107FD00088E0F5DFFFCF84E1DECF1F93182FE3DFCA
:107FE0001150E9F7F2DF1F91089580E0E8DFEE27F6
:047FF000FF270994CA
:027FFE00040479
:0400000300007E007B
:00000001FF
