:1000000003C1000032C1000030C100002EC1000059
:100010002CC100002AC1000028C1000026C1000038
:1000200024C1000022C1000020C100001EC1000048
:100030001CC100001EC7000018C1000016C100004E
:1000400014C1000012C1000010C100000EC1000068
:100050000CC100000AC1000008C100000C94360861
:1000600004C10000CDC70000A2C70000FEC0000010
:10007000FCC00000FAC00000F8C00000F6C000009C
:10008000F4C00000F2C00000F0C00000EEC00000AC
:10009000ECC00000EAC00000E8C00000E6C00000BC
:1000A000E4C00000E2C00000E0C00000DEC00000CC
:1000B000DCC00000DAC00000D8C00000D6C00000DC
:1000C000D4C00000D2C00000D0C00000CEC00000EC
:1000D000CCC00000CAC00000C8C00000C6C00000FC
:1000E000C4C0000000002100240027002A002D00C9
:1000F0003000330001010000040107010A01000083
:1001000020002300260029002C002F0032000001CF
:10011000000003010601090100000A0B02090C0D91
:100120000E080703040100000000000000000000AA
:1001300000000000000000000000000000000000BF
:10014000000000001211100000000000000000007C
:10015000000000000000000000000000000001029C
:1001600010202008081020401020408002010201C9
:100170000804020101020408102040808040201081
:1001800008040201800402018040201008040201DA
:100190000804020101020408102040800102040842
:1001A0001020408000002200250028002B002E0097
:1001B0003100340002010000050108010B010505B2
:1001C0000505070508080808020202020A0A0808CD
:1001D00004040404010101010101010103030303FB
:1001E00003030303040707070C0C0C0C0C0C0C0C8A
:1001F0000202020206060606060606060B0B0B0B9B
:100200000B0B0B0B0200800811241FBECFEFD1E2B5
:10021000DEBFCDBF00E00CBF15E0A0E0B2E0EAE237
:10022000FDE100E00BBF02C007900D92AA37B107B5
:10023000D9F727E0AAE7B5E001C01D92A633B207BF
:10024000E1F711E0C4E0D1E000E006C02197010928
:10025000802FFE010E94680EC330D10780E008079E
:10026000A9F70E946A090C94930ECACEAF92BF926E
:10027000CF92DF92EF92FF920F931F93CF93DF9372
:100280006C017B018B01040F151FEB015E01AE18A1
:10029000BF08C017D10759F06991D601ED91FC91C3
:1002A0000190F081E02DC6011995892B79F7C501E0
:1002B000DF91CF911F910F91FF90EF90DF90CF9042
:1002C000BF90AF900895FC01538D448D252F30E0F1
:1002D000842F90E0821B930B541710F0CF96089553
:1002E00001970895FC01918D828D981761F0A28D80
:1002F000AE0FBF2FB11D5D968C91928D9F5F9F7346
:10030000928F90E008958FEF9FEF0895FC01918DFB
:10031000828D981731F0828DE80FF11D858D90E068
:1003200008958FEF9FEF0895FC01918D228D892F05
:1003300090E0805C9F4F821B91098F7399270895ED
:1003400087E496E0F1DF21E0892B09F420E0822F99
:100350000895FC01A48DA80FB92FB11DA35ABF4F5A
:100360002C91848D90E001968F739927848FA689B4
:10037000B7892C93A089B1898C91837080648C9308
:10038000938D848D981306C00288F389E02D8081B7
:100390008F7D80830895EF92FF920F931F93CF93E9
:1003A000DF93EC0181E0888F9B8D8C8D98131AC0B0
:1003B000E889F989808185FF15C09FB7F894EE8997
:1003C000FF896083E889F9898081837080648083F4
:1003D0009FBF81E090E0DF91CF911F910F91FF903F
:1003E000EF900895F62E0B8D10E00F5F1F4F0F73E7
:1003F0001127E02E8C8D8E110BC00FB607FCFACFA3
:10040000E889F989808185FFF5CFCE01A2DFF2CF9F
:10041000EB8DEC0FFD2FF11DE35AFF4FF0829FB7DC
:10042000F8940B8FEA89FB8980818062D0CFCF93CB
:10043000DF93EC01888D8823B1F0AA89BB89E88914
:10044000F9898C9185FD03C0808186FD0CC00FB6B3
:1004500007FCF7CF8C9185FFF2CF808185FFEDCF30
:10046000CE0177DFEACFDF91CF91089580E090E071
:10047000892B21F065DF81110E94000080E090E06F
:10048000892B49F080E090E0892B29F00E94000040
:1004900081110E94000080E090E0892B49F080E00B
:1004A00090E0892B29F00E94000081110E94000039
:1004B00080E090E0892B49F080E090E0892B29F0E2
:1004C0000E94000081110C94000008958150823137
:1004D00008F05AC0E82FF0E08827EE58FD4F8F4F04
:1004E0000C94680E9202960284028A028E02C40262
:1004F00099029F02A302A902AD02B102B702BB0298
:10050000C402BF02C502C902809180008F77809328
:1005100080000895809180008F7DF9CF80918000C8
:10052000877FF5CF84B58F7784BD089584B58F7D9F
:10053000FBCF8091B0008F778093B00008958091B9
:10054000B0008F7DF9CF809190008F7780939000DD
:100550000895809190008F7DF9CF80919000877FE2
:10056000F5CF8091A0008F778093A00008958091AF
:10057000A0008F7DF9CF8091A000877FF5CF80917B
:1005800020018F77809320010895809120018F7D35
:10059000F9CF80912001877FF5CFCF93DF93282F6C
:1005A00030E0F901E85EFE4F8491F901E25AFE4F16
:1005B000D491F901E254FE4FC491CC2399F08111FA
:1005C00085DFEC2FF0E0EE0FFF1FE250FF4FA5910B
:1005D000B491EC91ED2381E090E009F480E0DF91AB
:1005E000CF91089580E090E0FACF1F93CF93DF93EF
:1005F000282F30E0F901E85EFE4F8491F901E25ABC
:10060000FE4FD491F901E254FE4FC491CC23A1F0E6
:10061000162F81115BDFEC2FF0E0EE0FFF1FEC5582
:10062000FE4FA591B4918FB7F894EC91111108C0C9
:10063000D095DE23DC938FBFDF91CF911F9108957A
:10064000DE2BF8CFCF93DF9390E0FC01E25AFE4F10
:10065000249182549E4FFC0184918823C9F090E03C
:10066000880F991FFC01EC51FF4FA591B491FC013B
:10067000EC55FE4FC591D49161110DC09FB7F89410
:100680008C91209582238C938881282328839FBF77
:10069000DF91CF910895623051F49FB7F8943C9167
:1006A000822F809583238C93E8812E2BEFCF8FB7F9
:1006B000F894EC912E2B2C938FBFEACF4F925F9240
:1006C0006F927F928F929F92AF92BF92CF92DF9262
:1006D000EF92FF920F931F93CF938B0190910202A1
:1006E000891799F09F3F09F484C0CF911F910F9112
:1006F000FF90EF90DF90CF90BF90AF909F908F9042
:100700007F906F905F904F900895E4E0F2E0C49185
:10071000C7FDEBCF61E096DFCC2319F0C23009F0C2
:10072000EAC14801B12CA12C60E072E18AE790E0B7
:10073000A50198010E944C0E29013A017A01690134
:1007400021E0C21AD108E108F1088FEFC816D104E0
:10075000E104F10409F00CF49BC160E472E48FE061
:1007600090E0A50198010E944C0E69017A0181E098
:10077000C81AD108E108F108C23009F023C182E0AB
:100780002FEFC216D104E104F10409F00CF46AC29F
:1007900060E970ED83E090E0A50198010E944C0EA5
:1007A00069017A0181E0C81AD108E108F10883E003
:1007B0002FEFC216D104E104F10409F00CF452C287
:1007C00068E478EE81E090E0A50198010E944C0E6B
:1007D00069017A0181E0C81AD108E108F1082FEF18
:1007E000C216D104E104F10411F00CF029C184E037
:1007F00039C280930202E4E0F2E0C4919C2FCF3F23
:1008000009F473CFC23009F472C050F4CC2389F1DB
:10081000C13009F44AC097FD68CF61E013DF7ECF95
:10082000C43009F4ADC008F488C0C530A1F71092F7
:100830002001109221019091210198609093210153
:1008400090912101916090932101282F30E0F901CE
:10085000E254FE4FE491F0E0EE0FFF1FEC55FE4F27
:1008600045915491F901E25AFE4FE491E093270635
:1008700051CF14BC15BC94B5926094BD95B59160F0
:1008800095BD282F30E0F901E254FE4FE491F0E0ED
:10089000EE0FFF1FEC55FE4F45915491F901E25ABE
:1008A000FE4FE491E0932E0635CF10928000109217
:1008B00081009091810098609093810090918100D7
:1008C000916090938100282F30E0F901E254FE4FAF
:1008D000E491F0E0EE0FFF1FEC55FE4F459154916F
:1008E000F901E25AFE4FE491E0932D0613CF1092E6
:1008F000B0001092B1009091B00092609093B0005F
:100900009091B10091609093B100282F30E0F901EF
:10091000E254FE4FE491F0E0EE0FFF1FEC55FE4F66
:100920004591549150932C0640932B06F901E25ABD
:10093000FE4FE491E0932A06EDCE109290001092C3
:100940009100909191009860909391009091910006
:10095000916090939100282F30E0F901E254FE4F0E
:10096000E491F0E0EE0FFF1FEC55FE4F45915491DE
:10097000F901E25AFE4FE491E0932906C3E0CACEA2
:100980001092A0001092A1009091A1009860909305
:10099000A1009091A10091609093A100282F30E0D8
:1009A000F901E254FE4FE491F0E0EE0FFF1FEC5529
:1009B000FE4F45915491F901E25AFE4FE491E093C4
:1009C0002806A8CE8FEFC816D104E104F10409F07F
:1009D0000CF48FC068E478EE81E090E0A501980106
:1009E0000E944C0E69017A0181E0C81AD108E10821
:1009F000F108CC2309F456C18FEFC816D104E104E5
:100A0000F10409F00CF4F3CE62E17AE780E090E0C3
:100A1000A50194010E944C0E69017A0181E0C81A77
:100A2000D108E108F108CC2309F433C18FEFC816CF
:100A3000D104E104F10411F008F005C186E012C10F
:100A400064E274EF80E090E0A50194010E944C0EF6
:100A500069017A0181E0C81AD108E108F10885E04E
:100A60002FEFC216D104E104F10409F008F4FAC032
:100A700062E17AE780E090E0A50194010E944C0ECB
:100A800069017A0181E0C81AD108E108F108CECFE6
:100A900081E0C111E7C095B5987F892B85BD98018C
:100AA000220F331FAEE3B0E00E94700E28EE33E059
:100AB00040E050E00E942A0EC23009F490C00CF0D1
:100AC00066C0CC2309F47CC0C13009F00ECED092B0
:100AD0008900C092880020933F06309340064093DF
:100AE00041065093420680916F00826080936F00B0
:100AF000FCCD82E0CECFF12CE12C60E072E18AE700
:100B000090E0A70198010E944C0EDA01C9010197FB
:100B1000A109B109009721E0A207B1055CF46C01BD
:100B200091E0C130C1F480918100887F892B80934E
:100B30008100B5CF68E478EE81E090E0A7019801EC
:100B40000E944C0E69017A0181E0C81AD108E108BF
:100B5000F10893E0E6CFC33039F480919100887FAB
:100B6000892B809391009BCFC43039F48091A100F0
:100B7000887F892B8093A10092CFC53009F08FCF59
:100B800080912101887F892B8093210188CFC430F7
:100B900009F447C0A4F1C53009F0A7CDD0922901CE
:100BA000C092280120932F063093300640933106DF
:100BB000509332068091730082608093730095CDCC
:100BC000C7BC209343063093440640934506509398
:100BD000460680916E00826080936E0086CDC09242
:100BE000B30020933B0630933C0640933D06509360
:100BF0003E068091700082608093700076CDD09226
:100C00009900C0929800209337063093380640939D
:100C1000390650933A06809171008260809371008A
:100C200064CDD092A900C092A800209333063093DF
:100C300034064093350650933606809172008260E8
:100C40008093720052CD730162019AE0F594E794AB
:100C5000D794C7949A95D1F721E0C21AD108E10838
:100C6000F10887E09091B100987F892B8093B100C3
:100C700016CF730162018AE0F594E794D794C79484
:100C80008A95D1F721E0C21AD108E108F10885E080
:100C900002CF8FEFC816D104E104F10409F048F740
:100CA00084E0F9CE83E02FEFC216D104E104F10411
:100CB00009F00CF4F0CEA8CE3FB7F89480917B05F4
:100CC00090917C05A0917D05B0917E0526B5A89BED
:100CD00005C02F3F19F00196A11DB11D3FBFBA2FCE
:100CE000A92F982F8827BC01CD01620F711D811D8E
:100CF000911D42E0660F771F881F991F4A95D1F713
:100D000008958F929F92AF92BF92CF92DF92EF920F
:100D1000FF92D2DF4B015C018CE3C82ED12CE12C79
:100D2000F12CCADF681979098A099B09683E73406A
:100D300081059105B0F321E0C21AD108E108F1085C
:100D400088EE880E83E0981EA11CB11CC114D1044A
:100D5000E104F10431F7FF90EF90DF90CF90BF9066
:100D6000AF909F908F900895BC0183E0A7CCFC01C9
:100D700001900020E9F73197AF01481B590BBC01E6
:100D800087E496E073CA8F929F92AF92BF920F93BF
:100D90001F93CF93DF93CDB7DEB7A1970FB6F8942B
:100DA000DEBF0FBECDBF19A2423008F44AE08E016B
:100DB0000F5D1F4F842E912CB12CA12CA501940105
:100DC00049D7E62FB901CA01EA30ECF4E05DD80159
:100DD000EE938D01232B242B252B81F790E080E0CF
:100DE000109711F0CD01C3DFA1960FB6F894DEBFC6
:100DF0000FBECDBFDF91CF911F910F91BF90AF90EC
:100E00009F908F900895E95CE2CFCF92DF92EF92AE
:100E1000FF92CF93DF936B017C016DE287E496E054
:100E2000BADAEC0166277727CB016C197D098E09A8
:100E30009F094AE0A8DF8C0F9D1FDF91CF91FF90A3
:100E4000EF90DF90CF900895CF93DF93BC01990F7F
:100E5000880B990B97FF0AC0D8DFEC0183E495E07B
:100E600086DF8C0F9D1FDF91CF9108954AE08BDFC5
:100E7000F4CF1F920F920FB60F9211240BB60F9260
:100E80002F933F934F935F936F937F938F939F9392
:100E9000AF93BF93EF93FF9380913B0690913C06F5
:100EA000A0913D06B0913E06892B8A2B8B2BE1F158
:100EB00090912A06E0912B06F0912C0680818927DB
:100EC000808380913B0690913C06A0913D06B091B5
:100ED0003E06181619061A061B069CF480913B065E
:100EE00090913C06A0913D06B0913E060197A10964
:100EF000B10980933B0690933C06A0933D06B093C6
:100F00003E06FF91EF91BF91AF919F918F917F919D
:100F10006F915F914F913F912F910F900BBE0F906A
:100F20000FBE0F901F90189580910202E4E0F2E04E
:100F3000E4919FEF90930202E230E1F038F4EE2367
:100F400081F0E13089F060E050DBDBCFE43049F143
:100F500010F1E530C1F7909173009D7F909373007D
:100F6000F2CF10926E00EFCF90916F009D7F909323
:100F70006F00E9CF909170009D7F9093700091E099
:100F80009093B0009091B100987F94609093B100DD
:100F90001092B300D8CF909171009D7F9093710013
:100FA000D2CF909172009D7F90937200CCCF1F9210
:100FB0000F920FB60F9211240BB60F922F933F93FF
:100FC0004F935F936F937F938F939F93AF93BF9351
:100FD000EF93FF9387E496E0BCD9FF91EF91BF9127
:100FE000AF919F918F917F916F915F914F913F91C1
:100FF0002F910F900BBE0F900FBE0F901F90189562
:101000001F920F920FB60F9211240BB60F922F93CF
:101010008F939F93EF93FF93E0915706F0915806BB
:101020008081E0915D06F0915E0682FD1DC0908199
:10103000809160068F5F8F7320916106821741F067
:10104000E0916006F0E0E95BF94F958F80936006D0
:10105000FF91EF919F918F912F910F900BBE0F9069
:101060000FBE0F901F9018958081F2CF1F920F92A4
:101070000FB60F9211242F933F938F939F93AF93AB
:10108000BF9380917F0590918005A0918105B091DB
:10109000820530917A0523E0230F2D3758F501960C
:1010A000A11DB11D20937A0580937F059093800543
:1010B000A0938105B093820580917B0590917C057A
:1010C000A0917D05B0917E050196A11DB11D809373
:1010D0007B0590937C05A0937D05B0937E05BF9121
:1010E000AF919F918F913F912F910F900FBE0F90D5
:1010F0001F90189526E8230F0296A11DB11DD2CF8F
:101100002F923F924F925F926F927F928F929F9217
:10111000AF92BF92CF92DF92EF92FF920F931F9305
:10112000CF93DF93E7E4F6E01382128288EE93E038
:10113000A0E0B0E084839583A683B78385E395E040
:101140009183808385EC90E09587848784EC90E0A0
:101150009787868780EC90E0918B808B81EC90E084
:10116000938B828B82EC90E0958B848B86EC90E065
:10117000978B868B118E128E138E148EE6E1F7E01C
:1011800087E1882E912C9182808299E1692E712CC1
:10119000738262822BE1422E512C558244823DE1C2
:1011A000232E312C378226822FE130E031872087B1
:1011B00081E290E09387828743E2A42EB12CB5862A
:1011C000A48645E250E05787468757E2C52ED12CCA
:1011D000D18AC08A49E250E0538B428B6BE2E62E03
:1011E000F12CF58AE48A0DE210E0178B068BCFE232
:1011F000D0E0D18FC08FA1E3B0E0B38FA28F63E3C3
:1012000070E0758F648F45E350E0578F468FE8E0BC
:10121000F7E0D182C082F382E28215830483D78310
:10122000C683B187A0877387628755874487E2E0CA
:10123000F7E03183208393838283B582A482EAEF2F
:10124000F6E0918280827382628255824482378284
:101250002682E4EEF6E086E190E09183808388E1E7
:1012600090E0938382838AE190E0958384838CE18C
:1012700090E0978386838EE190E09187808780E27B
:1012800090E09387828782E290E09587848784E26A
:1012900090E09787868786E290E0918B808B88E24A
:1012A00090E0938B828B8AE290E0958B848BDF9128
:1012B000CF911F910F91FF90EF90DF90CF90BF9053
:1012C000AF909F908F907F906F905F904F903F90E6
:1012D0002F900895CF93DF93CDB7DEB7C058D109D3
:1012E0000FB6F894DEBF0FBECDBF789484B5826090
:1012F00084BD84B5816084BD85B5826085BD85B5BA
:10130000816085BD80916E00816080936E00109237
:1013100081008091810082608093810080918100B2
:101320008160809381008091800081608093800043
:101330008091B10084608093B1008091B0008160A1
:101340008093B000809191008260809391008091A1
:1013500091008160809391008091900081608093E2
:1013600090008091A10082608093A1008091A100F3
:1013700081608093A1008091A00081608093A00093
:1013800080912101826080932101809121018160FF
:1013900080932101809120018160809320018091C0
:1013A0007A00846080937A0080917A0082608093D2
:1013B0007A0080917A00816080937A0080917A002F
:1013C000806880937A001092C100E0915706F091F6
:1013D000580682E08083E0915306F0915406108213
:1013E000E0915506F09156068FEC808310925F06CF
:1013F000E0915B06F0915C0686E08083E0915906FF
:10140000F0915A06808180618083E0915906F091C5
:101410005A06808188608083E0915906F0915A06CF
:10142000808180688083E0915906F0915A0680811E
:101430008F7D808386E495E09ADC83E495E097DCF9
:1014400006E117E07801D7018C91B2E0EB0EF11CB8
:1014500061E0F8D8E6E3EE16E7E0FE06A1F734EE29
:10146000E32E36E0F32ED7018C91B2E0EB0EF11CA7
:1014700062E0E8D8EAEFEE16E6E0FE06A1F761E0EA
:1014800082E0E0D861E082E0DDD860E082E0ADD8C3
:1014900061E083E0D7D861E083E0D4D860E083E006
:1014A000A4D860E086E3CED893E8C92E92E0D92E86
:1014B00023E9E22E22E0F22ED701AC90B2E0EB0E4F
:1014C000F11C61E08A2DBED8F601B080F2E0CF0EAB
:1014D000D11C61E08B2DB6D860E08A2D86D861E002
:1014E0008B2D83D823EAE21622E0F20629F7E2E9FF
:1014F000F5E081E090E091838083938382839583FC
:101500008483978386839187808793878287958753
:10151000848797878687709636E0E231F30759F71C
:1015200063E072E022E935E0CC24C394D12CFB01C6
:1015300050E040E0E080F180CA01880F991F820FDF
:10154000931FEA94EF2809F0CAC0DC011D921C9297
:101550004F5F5F4F70964830510561F7205F3F4FF6
:101560006E5F7F4FB6E022313B0709F780E190E0E4
:101570006BDCA6E1EA2EA7E0FA2EF7018081F2E00B
:10158000EF0EF11C61E031D8BCDB26E3E21627E068
:10159000F20699F7D8018C910E5F1F4F60E025D8B5
:1015A000B0DBB7E006331B07A9F7F2E1EF2EF6E058
:1015B000FF2E04EE16E0F80180810E5F1F4F0E949F
:1015C000CD0221E0892B09F020E0D7012D937D0188
:1015D000B6E00A3F1B0779F772E9472E512C6624C3
:1015E0006394712C2FB7F89480917F0590918005BA
:1015F000A0918105B09182052FBF8093230690931F
:101600002406A0932506B093260640911F0650910C
:10161000200660912106709122068C019D01041B19
:10162000150B260B370BB901A8014436510561058E
:10163000710508F4A0C080931F0690932006A09324
:101640002106B093220680917B00877F80937B00E8
:1016500010E410937C0080917A00806480937A007B
:1016600080917A0086FDFCCF80917800009179000E
:10167000102F082F0A5F1F4FC801B201D8D26B018B
:1016800067E0E62EF12CEC18FD0880911D06909184
:101690001E06E816F90609F46EC081E595E067DBE1
:1016A000C701D2DB88E595E062DBC801CDDBF092B3
:1016B0001E06E0921D0624E22E9D80012F9D100D36
:1016C0001124C801C1DB61E082E00E942203011500
:1016D000110549F460E082E00E94F50228C0DC01B7
:1016E000CD92DC9235CFEAE1F1E08491EFEFE80FA3
:1016F000E23108F032C2F0E08827EF57F44F8F4F05
:10170000E7C2930B1B0D200D2A0D340DAD0D3E0DC0
:10171000460D4E0D580D620D6C0D7B0D850DAD0DFA
:101720008F0D990DA30D84B5806884BD07BDE6E0DB
:10173000F0E0EC19FD09EE0FFF1FED5DFA4F60813F
:10174000718183E00E945E0358E0C52E57E0D52EDC
:1017500001E010E0D6018C91B2E0CB0ED11C60E02C
:10176000E016F1060CF061E00E94F5020F5F1F4FDA
:101770000830110579F732E9C32E35E0D32E03E99D
:1017800012E0F80130800E5F1F4F61E0832D0E9450
:10179000F50223E8A22E22E0B22EF12CE12CF60174
:1017A000EE0DFF1D80809180D5012C90B2E0AB0E34
:1017B000B11C682D822D0E94F502892821F461E078
:1017C000822D0E94F502E2E0EE0EF11CF0E1EF1630
:1017D000F10429F760E0832D0E94F50220E1C20E9A
:1017E000D11C32E0033A130761F684EEC82E86E07E
:1017F000D82E92E1E92E96E0F92ED701AD907D0129
:10180000F601019111916F01802F0E94CD02BB243E
:10181000B394892B09F0B12CAB1481F08FE595E0DE
:10182000A6DAB801110F880B990B97FF9CC1EDDA6E
:1018300086E795E09CDA8B2D90E006DBF701319787
:10184000B082FDE1EF16F6E0FF06B9F680910207DF
:1018500090911606992309F48DC161E00E94F5026A
:1018600063EA74E022E935E0FB0150E040E0A0814A
:10187000B181CA01880F991F820F931F119709F038
:1018800075C1DC011D921C924F5F5F4F709648300E
:10189000510569F7205F3F4F6E5F7F4FB6E0223101
:1018A0003B0711F780918B05811106C086E091E01E
:1018B0005BDA81E080938B05809104079091190693
:1018C000992309F45DC161E00E94F50280918E05C3
:1018D000811106C086E291E047DA81E080938E05AF
:1018E0008091060790911706992309F44FC161E092
:1018F0000E94F50280918C05811106C08AE491E076
:1019000033DA81E080938C058091FA061091FC0611
:1019100090911206992309F43FC161E00E94F502FB
:1019200061E0812F0E94F5028091FE061091000770
:1019300090911306992309F434C161E00E94F502E5
:1019400061E0812F0E94F5028091240790911C068E
:1019500061E0911101C060E00E94F50280912807CA
:1019600090911806992309F45EC161E00E94F50286
:101970008091230690912406A0912506B091260619
:10198000409183055091840560918505709186058D
:101990008C019D01041B150B260B370BB901A80107
:1019A000483C51056105710508F442C080938305E8
:1019B00090938405A0938505B093860580E8E3E2C3
:1019C000F4E0DE01119601900D928A95E1F7809185
:1019D0000002909101028130910509F0E7C022E0F8
:1019E00030E03093010220930002BE016F5F7F4F11
:1019F00022E935E0FB0150E040E0A081B181CA015D
:101A0000880F991F820F931F119709F008C1DC01FD
:101A10001D921C924F5F5F4F70964830510569F7D9
:101A2000205F3F4F6E5F7F4FB6E022313B0711F7DB
:101A30000E943602D7CD84B5806284BD08BD77CEC2
:101A400080918000806880938000109389000093CB
:101A500088006DCE8091800080628093800010931A
:101A60008B0000938A0063CE809180008860809311
:101A7000800010938D0000938C0059CE8091B000AF
:101A800080688093B0000093B30051CE8091B00085
:101A900080628093B0000093B40049CE80919000A2
:101AA00080688093900010939900009398003FCE37
:101AB0008091900080628093900010939B0000932F
:101AC0009A0035CE809190008860809390001093AA
:101AD0009D0000939C002BCE8091A0008068809395
:101AE000A0008091A0008F7B8093A0001093A9009C
:101AF0000093A8001CCE8091A00080628093A0007B
:101B00001093AB000093AA0012CE8091A0008860D1
:101B10008093A0001093AD000093AC0008CE80919C
:101B200020018068809320011093290100932801EF
:101B3000FECD8091200180628093200110932B01C3
:101B400000932A01F4CD80912001886080932001C8
:101B500010932D0100932C01EACD003811050CF4EF
:101B6000B9CD61E0B8CD4AE00ED962CEDC016D920C
:101B70007C928ACE60E00E94F50210928B059CCE8A
:101B800060E00E94F50210928E05AACE60E00E94ED
:101B9000F50210928C05B8CE60E00E94F50260E07C
:101BA000C0CE60E00E94F50260E0CBCE82309105AD
:101BB00081F480E8E3EAF3E0DE01119601900D92F2
:101BC0008A95E1F783E090E0909301028093000210
:101BD0000CCF8330910581F480E8E3E2F3E0DE018D
:101BE000119601900D928A95E1F7A4E0B0E0B093D0
:101BF0000102A0930002F9CE049709F0F6CE80E826
:101C0000E3EAF2E0DE01119601900D928A95E1F788
:101C1000E1E0F0E0F0930102E0930002E6CEDC01A7
:101C20006D927C92F7CE60E00E94F50201CF97FBA7
:101C3000072E16F4009406D077FD08D060D007FC7C
:101C400005D03EF4909581959F4F089570956195CC
:101C50007F4F0895A1E21A2EAA1BBB1BFD010DC0E8
:101C6000AA1FBB1FEE1FFF1FA217B307E407F5074C
:101C700020F0A21BB30BE40BF50B661F771F881F28
:101C8000991F1A9469F760957095809590959B01BE
:101C9000AC01BD01CF010895052E97FB16F4009409
:101CA0000FD057FD05D0D6DF07FC02D046F408C0A0
:101CB00050954095309521953F4F4F4F5F4F089578
:101CC00090958095709561957F4F8F4F9F4F0895A8
:101CD000EE0FFF1F881F8BBF0790F691E02D199420
:101CE000A29FB001B39FC001A39F700D811D11245D
:101CF000911DB29F700D811D1124911D0895AA1B85
:101D0000BB1B51E107C0AA1FBB1FA617B70710F0E6
:101D1000A61BB70B881F991F5A95A9F78095909518
:0A1D2000BC01CD010895F894FFCF37
:101D2A000100FF00000000000000000000000000A9
:101D3A000000000000000000000000000000000099
:101D4A000000000000000000000000000000000089
:101D5A000000000000000000000000000000000079
:101D6A000000000000000000000000000000000069
:101D7A000000000000000000000000000000000059
:101D8A000000000000000000000000000000000049
:101D9A000000000000000000000000000000000039
:101DAA00000000370038003C0009003D000700062B
:101DBA00003A003E0039000B003B0004000A00050F
:101DCA0000080001000100010001000100010001FA
:101DDA0000010001000000000000000000000000F7
:101DEA0000010001000000000000000000000000E7
:101DFA0000010001000000000000000000000000D7
:101E0A0000010001000000000000000000000000C6
:101E1A0000010001000000000000000000000000B6
:101E2A0000010001000000000000000000000000A6
:101E3A000001000100010001000100010001000190
:101E4A000001000000000000000000000000000087
:101E5A000000000000010001000100010001000172
:101E6A000000000000010000000000000000000166
:101E7A000000000000010000000000000000000156
:101E8A000000000000010000000000000000000146
:101E9A000000000000010000000000000000000136
:101EAA000000000000010001000100010001000122
:101EBA000000000000000000000000000000000018
:101ECA000000000000000000000000000000000008
:101EDA0000000000000000000000000000000000F8
:101EEA0000000000000000010001000100010000E4
:101EFA0000000000000000010000000000010000D6
:101F0A0000000000000000010000000000010000C5
:101F1A0000000000000000010001000100010000B3
:101F2A0000000000000000000000000000000000A7
:101F3A000000000000000000000000000000000097
:101F4A000000000000000000000000000000000087
:101F5A000000000000000000000000000000000077
:101F6A000000000000000000000000000000000067
:101F7A000000000000000000000100010000000055
:101F8A000000000000000000000100010000000045
:101F9A000000000000000000000000000000000037
:101FAA000000000000000000000000000000000027
:101FBA000000000000000000000000000000000017
:101FCA000000000000000000000000000000000007
:101FDA0000000000000100010000000000010001F3
:101FEA0000000001000000000001000100000000E4
:101FFA0000010001000000000000000000000000D5
:10200A0000010001000000000000000000000000C4
:10201A0000010000000100000000000000000001B3
:10202A0000000000000000010000000000010000A4
:10203A000000000000000000000100010000000094
:10204A000000007B0083008B0093009C00A500AF7A
:10205A000000000000CB01360163011702940172EF
:10206A000186010D0A00536B657463683A202020CB
:10207A0000537465703A2000506F74693A20005317
:10208A007769746368205374617465206368616E4C
:0A209A00676564202800293A200041
:00000001FF
